{
  "contractName": "SupplyChain",
  "abi": [
    {
      "inputs": [
        {
          "internalType": "address",
          "name": "",
          "type": "address"
        }
      ],
      "name": "distributors",
      "outputs": [
        {
          "internalType": "string",
          "name": "name",
          "type": "string"
        },
        {
          "internalType": "string",
          "name": "location",
          "type": "string"
        },
        {
          "internalType": "string",
          "name": "crop",
          "type": "string"
        },
        {
          "internalType": "uint256",
          "name": "quantity",
          "type": "uint256"
        },
        {
          "internalType": "uint256",
          "name": "price",
          "type": "uint256"
        },
        {
          "internalType": "bool",
          "name": "isValue",
          "type": "bool"
        }
      ],
      "stateMutability": "view",
      "type": "function",
      "constant": true
    },
    {
      "inputs": [
        {
          "internalType": "address",
          "name": "",
          "type": "address"
        }
      ],
      "name": "farmers",
      "outputs": [
        {
          "internalType": "string",
          "name": "name",
          "type": "string"
        },
        {
          "internalType": "string",
          "name": "location",
          "type": "string"
        },
        {
          "internalType": "string",
          "name": "crop",
          "type": "string"
        },
        {
          "internalType": "uint256",
          "name": "quantity",
          "type": "uint256"
        },
        {
          "internalType": "uint256",
          "name": "price",
          "type": "uint256"
        },
        {
          "internalType": "bool",
          "name": "isValue",
          "type": "bool"
        }
      ],
      "stateMutability": "view",
      "type": "function",
      "constant": true
    },
    {
      "inputs": [
        {
          "internalType": "address",
          "name": "",
          "type": "address"
        }
      ],
      "name": "nodalAgencies",
      "outputs": [
        {
          "internalType": "string",
          "name": "name",
          "type": "string"
        },
        {
          "internalType": "string",
          "name": "location",
          "type": "string"
        },
        {
          "internalType": "string",
          "name": "crop",
          "type": "string"
        },
        {
          "internalType": "uint256",
          "name": "quantity",
          "type": "uint256"
        },
        {
          "internalType": "uint256",
          "name": "price",
          "type": "uint256"
        },
        {
          "internalType": "bool",
          "name": "isValue",
          "type": "bool"
        }
      ],
      "stateMutability": "view",
      "type": "function",
      "constant": true
    },
    {
      "inputs": [],
      "name": "productIndex",
      "outputs": [
        {
          "internalType": "uint256",
          "name": "",
          "type": "uint256"
        }
      ],
      "stateMutability": "view",
      "type": "function",
      "constant": true
    },
    {
      "inputs": [
        {
          "internalType": "uint256",
          "name": "",
          "type": "uint256"
        }
      ],
      "name": "products",
      "outputs": [
        {
          "internalType": "string",
          "name": "name",
          "type": "string"
        },
        {
          "internalType": "uint256",
          "name": "price",
          "type": "uint256"
        },
        {
          "internalType": "address",
          "name": "farmer",
          "type": "address"
        },
        {
          "internalType": "address",
          "name": "distributor",
          "type": "address"
        },
        {
          "internalType": "address",
          "name": "nodalAgency",
          "type": "address"
        },
        {
          "internalType": "uint256",
          "name": "quantity",
          "type": "uint256"
        },
        {
          "internalType": "string",
          "name": "status",
          "type": "string"
        },
        {
          "internalType": "uint256",
          "name": "date",
          "type": "uint256"
        },
        {
          "internalType": "address",
          "name": "purchaseRequestDistributor",
          "type": "address"
        },
        {
          "internalType": "string",
          "name": "purchaseRequestZipcode",
          "type": "string"
        },
        {
          "internalType": "bool",
          "name": "isValue",
          "type": "bool"
        }
      ],
      "stateMutability": "view",
      "type": "function",
      "constant": true
    },
    {
      "inputs": [
        {
          "internalType": "string",
          "name": "_name",
          "type": "string"
        },
        {
          "internalType": "string",
          "name": "_location",
          "type": "string"
        },
        {
          "internalType": "string",
          "name": "_crop",
          "type": "string"
        },
        {
          "internalType": "uint256",
          "name": "_quantity",
          "type": "uint256"
        },
        {
          "internalType": "uint256",
          "name": "_price",
          "type": "uint256"
        }
      ],
      "name": "addFarmer",
      "outputs": [],
      "stateMutability": "nonpayable",
      "type": "function"
    },
    {
      "inputs": [],
      "name": "getFarmer",
      "outputs": [
        {
          "internalType": "string",
          "name": "",
          "type": "string"
        },
        {
          "internalType": "string",
          "name": "",
          "type": "string"
        },
        {
          "internalType": "string",
          "name": "",
          "type": "string"
        },
        {
          "internalType": "uint256",
          "name": "",
          "type": "uint256"
        },
        {
          "internalType": "uint256",
          "name": "",
          "type": "uint256"
        }
      ],
      "stateMutability": "view",
      "type": "function",
      "constant": true
    },
    {
      "inputs": [
        {
          "internalType": "string",
          "name": "_name",
          "type": "string"
        },
        {
          "internalType": "string",
          "name": "_location",
          "type": "string"
        },
        {
          "internalType": "string",
          "name": "_crop",
          "type": "string"
        },
        {
          "internalType": "uint256",
          "name": "_quantity",
          "type": "uint256"
        },
        {
          "internalType": "uint256",
          "name": "_price",
          "type": "uint256"
        }
      ],
      "name": "addDistributor",
      "outputs": [],
      "stateMutability": "nonpayable",
      "type": "function"
    },
    {
      "inputs": [],
      "name": "getDistributor",
      "outputs": [
        {
          "internalType": "string",
          "name": "",
          "type": "string"
        },
        {
          "internalType": "string",
          "name": "",
          "type": "string"
        },
        {
          "internalType": "string",
          "name": "",
          "type": "string"
        },
        {
          "internalType": "uint256",
          "name": "",
          "type": "uint256"
        },
        {
          "internalType": "uint256",
          "name": "",
          "type": "uint256"
        }
      ],
      "stateMutability": "view",
      "type": "function",
      "constant": true
    },
    {
      "inputs": [
        {
          "internalType": "string",
          "name": "_name",
          "type": "string"
        },
        {
          "internalType": "string",
          "name": "_location",
          "type": "string"
        },
        {
          "internalType": "string",
          "name": "_crop",
          "type": "string"
        },
        {
          "internalType": "uint256",
          "name": "_quantity",
          "type": "uint256"
        },
        {
          "internalType": "uint256",
          "name": "_price",
          "type": "uint256"
        }
      ],
      "name": "addNodalAgency",
      "outputs": [],
      "stateMutability": "nonpayable",
      "type": "function"
    },
    {
      "inputs": [],
      "name": "getNodalAgency",
      "outputs": [
        {
          "internalType": "string",
          "name": "",
          "type": "string"
        },
        {
          "internalType": "string",
          "name": "",
          "type": "string"
        },
        {
          "internalType": "string",
          "name": "",
          "type": "string"
        },
        {
          "internalType": "uint256",
          "name": "",
          "type": "uint256"
        },
        {
          "internalType": "uint256",
          "name": "",
          "type": "uint256"
        }
      ],
      "stateMutability": "view",
      "type": "function",
      "constant": true
    },
    {
      "inputs": [
        {
          "internalType": "string",
          "name": "_name",
          "type": "string"
        },
        {
          "internalType": "uint256",
          "name": "_price",
          "type": "uint256"
        },
        {
          "internalType": "uint256",
          "name": "_quantity",
          "type": "uint256"
        },
        {
          "internalType": "string",
          "name": "_status",
          "type": "string"
        },
        {
          "internalType": "address",
          "name": "_distributor",
          "type": "address"
        },
        {
          "internalType": "string",
          "name": "_purchaseRequestZipcode",
          "type": "string"
        }
      ],
      "name": "addProduct",
      "outputs": [],
      "stateMutability": "nonpayable",
      "type": "function"
    },
    {
      "inputs": [
        {
          "internalType": "uint256",
          "name": "_productIndex",
          "type": "uint256"
        }
      ],
      "name": "getProduct",
      "outputs": [
        {
          "internalType": "string",
          "name": "",
          "type": "string"
        },
        {
          "internalType": "uint256",
          "name": "",
          "type": "uint256"
        },
        {
          "internalType": "address",
          "name": "",
          "type": "address"
        },
        {
          "internalType": "address",
          "name": "",
          "type": "address"
        },
        {
          "internalType": "address",
          "name": "",
          "type": "address"
        },
        {
          "internalType": "uint256",
          "name": "",
          "type": "uint256"
        },
        {
          "internalType": "string",
          "name": "",
          "type": "string"
        },
        {
          "internalType": "uint256",
          "name": "",
          "type": "uint256"
        },
        {
          "internalType": "address",
          "name": "",
          "type": "address"
        },
        {
          "internalType": "string",
          "name": "",
          "type": "string"
        }
      ],
      "stateMutability": "view",
      "type": "function",
      "constant": true
    },
    {
      "inputs": [
        {
          "internalType": "uint256",
          "name": "_productIndex",
          "type": "uint256"
        },
        {
          "internalType": "string",
          "name": "_status",
          "type": "string"
        }
      ],
      "name": "updateProductStatus",
      "outputs": [],
      "stateMutability": "nonpayable",
      "type": "function"
    },
    {
      "inputs": [
        {
          "internalType": "uint256",
          "name": "_productIndex",
          "type": "uint256"
        },
        {
          "internalType": "uint256",
          "name": "_quantity",
          "type": "uint256"
        }
      ],
      "name": "updateProductQuantity",
      "outputs": [],
      "stateMutability": "nonpayable",
      "type": "function"
    },
    {
      "inputs": [
        {
          "internalType": "uint256",
          "name": "_productIndex",
          "type": "uint256"
        }
      ],
      "name": "purchaseRequest",
      "outputs": [],
      "stateMutability": "nonpayable",
      "type": "function"
    },
    {
      "inputs": [
        {
          "internalType": "uint256",
          "name": "_productIndex",
          "type": "uint256"
        },
        {
          "internalType": "address",
          "name": "_distributor",
          "type": "address"
        }
      ],
      "name": "approvePurchaseRequest",
      "outputs": [],
      "stateMutability": "nonpayable",
      "type": "function"
    }
  ],
  "bytecode": "0x608060405234801561001057600080fd5b50613828806100206000396000f3fe608060405234801561001057600080fd5b506004361061010b5760003560e01c8063a47242c8116100a2578063bf9b792a11610071578063bf9b792a146102c0578063c897d5a6146102e2578063cc64278414610300578063cfa225ff14610335578063fcc93b0b1461036a5761010b565b8063a47242c814610233578063b598b6981461024f578063b9db15b41461026b578063ba429578146102a45761010b565b80635884965f116100de5780635884965f1461019f57806368e21579146101c157806376e35304146101dd5780637acc0b20146101f95761010b565b80632388ec4c14610110578063401b21681461013257806343f6c643146101675780634a1c813b14610183575b600080fd5b610118610386565b604051610129959493929190613186565b60405180910390f35b61014c60048036038101906101479190612ada565b610679565b60405161015e969594939291906131ee565b60405180910390f35b610181600480360381019061017c9190612c93565b61085a565b005b61019d60048036038101906101989190612cbc565b610a49565b005b6101a7610d48565b6040516101b8959493929190613186565b60405180910390f35b6101db60048036038101906101d69190612b03565b61103d565b005b6101f760048036038101906101f29190612bc2565b6111cf565b005b610213600480360381019061020e9190612c93565b6115d9565b60405161022a9b9a99989796959493929190613315565b60405180910390f35b61024d60048036038101906102489190612b03565b611858565b005b61026960048036038101906102649190612b03565b6119ec565b005b61028560048036038101906102809190612c93565b611b80565b60405161029b9a99989796959493929190613264565b60405180910390f35b6102be60048036038101906102b99190612cf8565b611fb4565b005b6102c86121c2565b6040516102d9959493929190613186565b60405180910390f35b6102ea6124b7565b6040516102f79190613555565b60405180910390f35b61031a60048036038101906103159190612ada565b6124bd565b60405161032c969594939291906131ee565b60405180910390f35b61034f600480360381019061034a9190612ada565b61269e565b604051610361969594939291906131ee565b60405180910390f35b610384600480360381019061037f9190612d4c565b61287f565b005b60608060606000806000803373ffffffffffffffffffffffffffffffffffffffff1673ffffffffffffffffffffffffffffffffffffffff16815260200190815260200160002060050160009054906101000a900460ff1661041c576040517f08c379a000000000000000000000000000000000000000000000000000000000815260040161041390613475565b60405180910390fd5b60008060003373ffffffffffffffffffffffffffffffffffffffff1673ffffffffffffffffffffffffffffffffffffffff1681526020019081526020016000206040518060c0016040529081600082018054610477906136ab565b80601f01602080910402602001604051908101604052809291908181526020018280546104a3906136ab565b80156104f05780601f106104c5576101008083540402835291602001916104f0565b820191906000526020600020905b8154815290600101906020018083116104d357829003601f168201915b50505050508152602001600182018054610509906136ab565b80601f0160208091040260200160405190810160405280929190818152602001828054610535906136ab565b80156105825780601f1061055757610100808354040283529160200191610582565b820191906000526020600020905b81548152906001019060200180831161056557829003601f168201915b5050505050815260200160028201805461059b906136ab565b80601f01602080910402602001604051908101604052809291908181526020018280546105c7906136ab565b80156106145780601f106105e957610100808354040283529160200191610614565b820191906000526020600020905b8154815290600101906020018083116105f757829003601f168201915b5050505050815260200160038201548152602001600482015481526020016005820160009054906101000a900460ff16151515158152505090508060000151816020015182604001518360600151846080015195509550955095509550509091929394565b600060205280600052604060002060009150905080600001805461069c906136ab565b80601f01602080910402602001604051908101604052809291908181526020018280546106c8906136ab565b80156107155780601f106106ea57610100808354040283529160200191610715565b820191906000526020600020905b8154815290600101906020018083116106f857829003601f168201915b50505050509080600101805461072a906136ab565b80601f0160208091040260200160405190810160405280929190818152602001828054610756906136ab565b80156107a35780601f10610778576101008083540402835291602001916107a3565b820191906000526020600020905b81548152906001019060200180831161078657829003601f168201915b5050505050908060020180546107b8906136ab565b80601f01602080910402602001604051908101604052809291908181526020018280546107e4906136ab565b80156108315780601f1061080657610100808354040283529160200191610831565b820191906000526020600020905b81548152906001019060200180831161081457829003601f168201915b5050505050908060030154908060040154908060050160009054906101000a900460ff16905086565b60036000828152602001908152602001600020600a0160009054906101000a900460ff166108bd576040517f08c379a00000000000000000000000000000000000000000000000000000000081526004016108b490613435565b60405180910390fd5b600160003373ffffffffffffffffffffffffffffffffffffffff1673ffffffffffffffffffffffffffffffffffffffff16815260200190815260200160002060050160009054906101000a900460ff1661094c576040517f08c379a0000000000000000000000000000000000000000000000000000000008152600401610943906134b5565b60405180910390fd5b600073ffffffffffffffffffffffffffffffffffffffff166003600083815260200190815260200160002060080160009054906101000a900473ffffffffffffffffffffffffffffffffffffffff1673ffffffffffffffffffffffffffffffffffffffff16146109f1576040517f08c379a00000000000000000000000000000000000000000000000000000000081526004016109e8906134f5565b60405180910390fd5b336003600083815260200190815260200160002060080160006101000a81548173ffffffffffffffffffffffffffffffffffffffff021916908373ffffffffffffffffffffffffffffffffffffffff16021790555050565b60036000838152602001908152602001600020600a0160009054906101000a900460ff16610aac576040517f08c379a0000000000000000000000000000000000000000000000000000000008152600401610aa390613435565b60405180910390fd5b6003600083815260200190815260200160002060020160009054906101000a900473ffffffffffffffffffffffffffffffffffffffff1673ffffffffffffffffffffffffffffffffffffffff163373ffffffffffffffffffffffffffffffffffffffff161480610b7d57506003600083815260200190815260200160002060040160009054906101000a900473ffffffffffffffffffffffffffffffffffffffff1673ffffffffffffffffffffffffffffffffffffffff163373ffffffffffffffffffffffffffffffffffffffff16145b610bbc576040517f08c379a0000000000000000000000000000000000000000000000000000000008152600401610bb3906133f5565b60405180910390fd5b600160008273ffffffffffffffffffffffffffffffffffffffff1673ffffffffffffffffffffffffffffffffffffffff16815260200190815260200160002060050160009054906101000a900460ff16610c4b576040517f08c379a0000000000000000000000000000000000000000000000000000000008152600401610c42906134b5565b60405180910390fd5b8073ffffffffffffffffffffffffffffffffffffffff166003600084815260200190815260200160002060080160009054906101000a900473ffffffffffffffffffffffffffffffffffffffff1673ffffffffffffffffffffffffffffffffffffffff1614610cef576040517f08c379a0000000000000000000000000000000000000000000000000000000008152600401610ce690613535565b60405180910390fd5b336003600084815260200190815260200160002060040160006101000a81548173ffffffffffffffffffffffffffffffffffffffff021916908373ffffffffffffffffffffffffffffffffffffffff1602179055505050565b6060806060600080600160003373ffffffffffffffffffffffffffffffffffffffff1673ffffffffffffffffffffffffffffffffffffffff16815260200190815260200160002060050160009054906101000a900460ff16610ddf576040517f08c379a0000000000000000000000000000000000000000000000000000000008152600401610dd6906134b5565b60405180910390fd5b6000600160003373ffffffffffffffffffffffffffffffffffffffff1673ffffffffffffffffffffffffffffffffffffffff1681526020019081526020016000206040518060c0016040529081600082018054610e3b906136ab565b80601f0160208091040260200160405190810160405280929190818152602001828054610e67906136ab565b8015610eb45780601f10610e8957610100808354040283529160200191610eb4565b820191906000526020600020905b815481529060010190602001808311610e9757829003601f168201915b50505050508152602001600182018054610ecd906136ab565b80601f0160208091040260200160405190810160405280929190818152602001828054610ef9906136ab565b8015610f465780601f10610f1b57610100808354040283529160200191610f46565b820191906000526020600020905b815481529060010190602001808311610f2957829003601f168201915b50505050508152602001600282018054610f5f906136ab565b80601f0160208091040260200160405190810160405280929190818152602001828054610f8b906136ab565b8015610fd85780601f10610fad57610100808354040283529160200191610fd8565b820191906000526020600020905b815481529060010190602001808311610fbb57829003601f168201915b5050505050815260200160038201548152602001600482015481526020016005820160009054906101000a900460ff16151515158152505090508060000151816020015182604001518360600151846080015195509550955095509550509091929394565b6000803373ffffffffffffffffffffffffffffffffffffffff1673ffffffffffffffffffffffffffffffffffffffff16815260200190815260200160002060050160009054906101000a900460ff16156110cc576040517f08c379a00000000000000000000000000000000000000000000000000000000081526004016110c3906133d5565b60405180910390fd5b6040518060c00160405280868152602001858152602001848152602001838152602001828152602001600115158152506000803373ffffffffffffffffffffffffffffffffffffffff1673ffffffffffffffffffffffffffffffffffffffff16815260200190815260200160002060008201518160000190805190602001906111569291906129a5565b5060208201518160010190805190602001906111739291906129a5565b5060408201518160020190805190602001906111909291906129a5565b50606082015181600301556080820151816004015560a08201518160050160006101000a81548160ff0219169083151502179055509050505050505050565b6000803373ffffffffffffffffffffffffffffffffffffffff1673ffffffffffffffffffffffffffffffffffffffff16815260200190815260200160002060050160009054906101000a900460ff1661125d576040517f08c379a000000000000000000000000000000000000000000000000000000000815260040161125490613475565b60405180910390fd5b600160008373ffffffffffffffffffffffffffffffffffffffff1673ffffffffffffffffffffffffffffffffffffffff16815260200190815260200160002060050160009054906101000a900460ff166112ec576040517f08c379a00000000000000000000000000000000000000000000000000000000081526004016112e3906134b5565b60405180910390fd5b836000803373ffffffffffffffffffffffffffffffffffffffff1673ffffffffffffffffffffffffffffffffffffffff168152602001908152602001600020600301600082825461133d91906135ed565b9250508190555060046000815480929190611357906136dd565b91905055506040518061016001604052808781526020018681526020013373ffffffffffffffffffffffffffffffffffffffff1681526020018373ffffffffffffffffffffffffffffffffffffffff168152602001600073ffffffffffffffffffffffffffffffffffffffff168152602001858152602001848152602001428152602001600073ffffffffffffffffffffffffffffffffffffffff1681526020018281526020016001151581525060036000600454815260200190815260200160002060008201518160000190805190602001906114369291906129a5565b506020820151816001015560408201518160020160006101000a81548173ffffffffffffffffffffffffffffffffffffffff021916908373ffffffffffffffffffffffffffffffffffffffff16021790555060608201518160030160006101000a81548173ffffffffffffffffffffffffffffffffffffffff021916908373ffffffffffffffffffffffffffffffffffffffff16021790555060808201518160040160006101000a81548173ffffffffffffffffffffffffffffffffffffffff021916908373ffffffffffffffffffffffffffffffffffffffff16021790555060a0820151816005015560c082015181600601908051906020019061153c9291906129a5565b5060e082015181600701556101008201518160080160006101000a81548173ffffffffffffffffffffffffffffffffffffffff021916908373ffffffffffffffffffffffffffffffffffffffff1602179055506101208201518160090190805190602001906115ac9291906129a5565b5061014082015181600a0160006101000a81548160ff021916908315150217905550905050505050505050565b60036020528060005260406000206000915090508060000180546115fc906136ab565b80601f0160208091040260200160405190810160405280929190818152602001828054611628906136ab565b80156116755780601f1061164a57610100808354040283529160200191611675565b820191906000526020600020905b81548152906001019060200180831161165857829003601f168201915b5050505050908060010154908060020160009054906101000a900473ffffffffffffffffffffffffffffffffffffffff16908060030160009054906101000a900473ffffffffffffffffffffffffffffffffffffffff16908060040160009054906101000a900473ffffffffffffffffffffffffffffffffffffffff1690806005015490806006018054611708906136ab565b80601f0160208091040260200160405190810160405280929190818152602001828054611734906136ab565b80156117815780601f1061175657610100808354040283529160200191611781565b820191906000526020600020905b81548152906001019060200180831161176457829003601f168201915b5050505050908060070154908060080160009054906101000a900473ffffffffffffffffffffffffffffffffffffffff16908060090180546117c2906136ab565b80601f01602080910402602001604051908101604052809291908181526020018280546117ee906136ab565b801561183b5780601f106118105761010080835404028352916020019161183b565b820191906000526020600020905b81548152906001019060200180831161181e57829003601f168201915b50505050509080600a0160009054906101000a900460ff1690508b565b600160003373ffffffffffffffffffffffffffffffffffffffff1673ffffffffffffffffffffffffffffffffffffffff16815260200190815260200160002060050160009054906101000a900460ff16156118e8576040517f08c379a00000000000000000000000000000000000000000000000000000000081526004016118df90613495565b60405180910390fd5b6040518060c0016040528086815260200185815260200184815260200183815260200182815260200160011515815250600160003373ffffffffffffffffffffffffffffffffffffffff1673ffffffffffffffffffffffffffffffffffffffff16815260200190815260200160002060008201518160000190805190602001906119739291906129a5565b5060208201518160010190805190602001906119909291906129a5565b5060408201518160020190805190602001906119ad9291906129a5565b50606082015181600301556080820151816004015560a08201518160050160006101000a81548160ff0219169083151502179055509050505050505050565b600260003373ffffffffffffffffffffffffffffffffffffffff1673ffffffffffffffffffffffffffffffffffffffff16815260200190815260200160002060050160009054906101000a900460ff1615611a7c576040517f08c379a0000000000000000000000000000000000000000000000000000000008152600401611a7390613515565b60405180910390fd5b6040518060c0016040528086815260200185815260200184815260200183815260200182815260200160011515815250600260003373ffffffffffffffffffffffffffffffffffffffff1673ffffffffffffffffffffffffffffffffffffffff1681526020019081526020016000206000820151816000019080519060200190611b079291906129a5565b506020820151816001019080519060200190611b249291906129a5565b506040820151816002019080519060200190611b419291906129a5565b50606082015181600301556080820151816004015560a08201518160050160006101000a81548160ff0219169083151502179055509050505050505050565b6060600080600080600060606000806060600360008c8152602001908152602001600020600a0160009054906101000a900460ff16611bf4576040517f08c379a0000000000000000000000000000000000000000000000000000000008152600401611beb90613435565b60405180910390fd5b6000600360008d815260200190815260200160002060405180610160016040529081600082018054611c25906136ab565b80601f0160208091040260200160405190810160405280929190818152602001828054611c51906136ab565b8015611c9e5780601f10611c7357610100808354040283529160200191611c9e565b820191906000526020600020905b815481529060010190602001808311611c8157829003601f168201915b50505050508152602001600182015481526020016002820160009054906101000a900473ffffffffffffffffffffffffffffffffffffffff1673ffffffffffffffffffffffffffffffffffffffff1673ffffffffffffffffffffffffffffffffffffffff1681526020016003820160009054906101000a900473ffffffffffffffffffffffffffffffffffffffff1673ffffffffffffffffffffffffffffffffffffffff1673ffffffffffffffffffffffffffffffffffffffff1681526020016004820160009054906101000a900473ffffffffffffffffffffffffffffffffffffffff1673ffffffffffffffffffffffffffffffffffffffff1673ffffffffffffffffffffffffffffffffffffffff16815260200160058201548152602001600682018054611dcd906136ab565b80601f0160208091040260200160405190810160405280929190818152602001828054611df9906136ab565b8015611e465780601f10611e1b57610100808354040283529160200191611e46565b820191906000526020600020905b815481529060010190602001808311611e2957829003601f168201915b50505050508152602001600782015481526020016008820160009054906101000a900473ffffffffffffffffffffffffffffffffffffffff1673ffffffffffffffffffffffffffffffffffffffff1673ffffffffffffffffffffffffffffffffffffffff168152602001600982018054611ebf906136ab565b80601f0160208091040260200160405190810160405280929190818152602001828054611eeb906136ab565b8015611f385780601f10611f0d57610100808354040283529160200191611f38565b820191906000526020600020905b815481529060010190602001808311611f1b57829003601f168201915b50505050508152602001600a820160009054906101000a900460ff1615151515815250509050806000015181602001518260400151836060015184608001518560a001518660c001518760e001518861010001518961012001519a509a509a509a509a509a509a509a509a509a50509193959799509193959799565b60036000838152602001908152602001600020600a0160009054906101000a900460ff16612017576040517f08c379a000000000000000000000000000000000000000000000000000000000815260040161200e90613435565b60405180910390fd5b6003600083815260200190815260200160002060020160009054906101000a900473ffffffffffffffffffffffffffffffffffffffff1673ffffffffffffffffffffffffffffffffffffffff163373ffffffffffffffffffffffffffffffffffffffff1614806120e857506003600083815260200190815260200160002060030160009054906101000a900473ffffffffffffffffffffffffffffffffffffffff1673ffffffffffffffffffffffffffffffffffffffff163373ffffffffffffffffffffffffffffffffffffffff16145b8061215457506003600083815260200190815260200160002060040160009054906101000a900473ffffffffffffffffffffffffffffffffffffffff1673ffffffffffffffffffffffffffffffffffffffff163373ffffffffffffffffffffffffffffffffffffffff16145b612193576040517f08c379a000000000000000000000000000000000000000000000000000000000815260040161218a90613415565b60405180910390fd5b806003600084815260200190815260200160002060060190805190602001906121bd9291906129a5565b505050565b6060806060600080600260003373ffffffffffffffffffffffffffffffffffffffff1673ffffffffffffffffffffffffffffffffffffffff16815260200190815260200160002060050160009054906101000a900460ff16612259576040517f08c379a0000000000000000000000000000000000000000000000000000000008152600401612250906134d5565b60405180910390fd5b6000600260003373ffffffffffffffffffffffffffffffffffffffff1673ffffffffffffffffffffffffffffffffffffffff1681526020019081526020016000206040518060c00160405290816000820180546122b5906136ab565b80601f01602080910402602001604051908101604052809291908181526020018280546122e1906136ab565b801561232e5780601f106123035761010080835404028352916020019161232e565b820191906000526020600020905b81548152906001019060200180831161231157829003601f168201915b50505050508152602001600182018054612347906136ab565b80601f0160208091040260200160405190810160405280929190818152602001828054612373906136ab565b80156123c05780601f10612395576101008083540402835291602001916123c0565b820191906000526020600020905b8154815290600101906020018083116123a357829003601f168201915b505050505081526020016002820180546123d9906136ab565b80601f0160208091040260200160405190810160405280929190818152602001828054612405906136ab565b80156124525780601f1061242757610100808354040283529160200191612452565b820191906000526020600020905b81548152906001019060200180831161243557829003601f168201915b5050505050815260200160038201548152602001600482015481526020016005820160009054906101000a900460ff16151515158152505090508060000151816020015182604001518360600151846080015195509550955095509550509091929394565b60045481565b60016020528060005260406000206000915090508060000180546124e0906136ab565b80601f016020809104026020016040519081016040528092919081815260200182805461250c906136ab565b80156125595780601f1061252e57610100808354040283529160200191612559565b820191906000526020600020905b81548152906001019060200180831161253c57829003601f168201915b50505050509080600101805461256e906136ab565b80601f016020809104026020016040519081016040528092919081815260200182805461259a906136ab565b80156125e75780601f106125bc576101008083540402835291602001916125e7565b820191906000526020600020905b8154815290600101906020018083116125ca57829003601f168201915b5050505050908060020180546125fc906136ab565b80601f0160208091040260200160405190810160405280929190818152602001828054612628906136ab565b80156126755780601f1061264a57610100808354040283529160200191612675565b820191906000526020600020905b81548152906001019060200180831161265857829003601f168201915b5050505050908060030154908060040154908060050160009054906101000a900460ff16905086565b60026020528060005260406000206000915090508060000180546126c1906136ab565b80601f01602080910402602001604051908101604052809291908181526020018280546126ed906136ab565b801561273a5780601f1061270f5761010080835404028352916020019161273a565b820191906000526020600020905b81548152906001019060200180831161271d57829003601f168201915b50505050509080600101805461274f906136ab565b80601f016020809104026020016040519081016040528092919081815260200182805461277b906136ab565b80156127c85780601f1061279d576101008083540402835291602001916127c8565b820191906000526020600020905b8154815290600101906020018083116127ab57829003601f168201915b5050505050908060020180546127dd906136ab565b80601f0160208091040260200160405190810160405280929190818152602001828054612809906136ab565b80156128565780601f1061282b57610100808354040283529160200191612856565b820191906000526020600020905b81548152906001019060200180831161283957829003601f168201915b5050505050908060030154908060040154908060050160009054906101000a900460ff16905086565b60036000838152602001908152602001600020600a0160009054906101000a900460ff166128e2576040517f08c379a00000000000000000000000000000000000000000000000000000000081526004016128d990613435565b60405180910390fd5b6003600083815260200190815260200160002060020160009054906101000a900473ffffffffffffffffffffffffffffffffffffffff1673ffffffffffffffffffffffffffffffffffffffff163373ffffffffffffffffffffffffffffffffffffffff1614612986576040517f08c379a000000000000000000000000000000000000000000000000000000000815260040161297d90613455565b60405180910390fd5b8060036000848152602001908152602001600020600501819055505050565b8280546129b1906136ab565b90600052602060002090601f0160209004810192826129d35760008555612a1a565b82601f106129ec57805160ff1916838001178555612a1a565b82800160010185558215612a1a579182015b82811115612a195782518255916020019190600101906129fe565b5b509050612a279190612a2b565b5090565b5b80821115612a44576000816000905550600101612a2c565b5090565b6000612a5b612a56846135a1565b613570565b905082815260208101848484011115612a7357600080fd5b612a7e848285613669565b509392505050565b600081359050612a95816137c4565b92915050565b600082601f830112612aac57600080fd5b8135612abc848260208601612a48565b91505092915050565b600081359050612ad4816137db565b92915050565b600060208284031215612aec57600080fd5b6000612afa84828501612a86565b91505092915050565b600080600080600060a08688031215612b1b57600080fd5b600086013567ffffffffffffffff811115612b3557600080fd5b612b4188828901612a9b565b955050602086013567ffffffffffffffff811115612b5e57600080fd5b612b6a88828901612a9b565b945050604086013567ffffffffffffffff811115612b8757600080fd5b612b9388828901612a9b565b9350506060612ba488828901612ac5565b9250506080612bb588828901612ac5565b9150509295509295909350565b60008060008060008060c08789031215612bdb57600080fd5b600087013567ffffffffffffffff811115612bf557600080fd5b612c0189828a01612a9b565b9650506020612c1289828a01612ac5565b9550506040612c2389828a01612ac5565b945050606087013567ffffffffffffffff811115612c4057600080fd5b612c4c89828a01612a9b565b9350506080612c5d89828a01612a86565b92505060a087013567ffffffffffffffff811115612c7a57600080fd5b612c8689828a01612a9b565b9150509295509295509295565b600060208284031215612ca557600080fd5b6000612cb384828501612ac5565b91505092915050565b60008060408385031215612ccf57600080fd5b6000612cdd85828601612ac5565b9250506020612cee85828601612a86565b9150509250929050565b60008060408385031215612d0b57600080fd5b6000612d1985828601612ac5565b925050602083013567ffffffffffffffff811115612d3657600080fd5b612d4285828601612a9b565b9150509250929050565b60008060408385031215612d5f57600080fd5b6000612d6d85828601612ac5565b9250506020612d7e85828601612ac5565b9150509250929050565b612d9181613621565b82525050565b612da081613633565b82525050565b6000612db1826135d1565b612dbb81856135dc565b9350612dcb818560208601613678565b612dd4816137b3565b840191505092915050565b6000612dec6016836135dc565b91507f4661726d657220616c7265616479206578697374732e000000000000000000006000830152602082019050919050565b6000612e2c6048836135dc565b91507f596f7520617265206e6f7420617574686f72697a656420746f20617070726f7660008301527f6520746865207075726368617365207265717565737420666f7220746869732060208301527f70726f647563742e0000000000000000000000000000000000000000000000006040830152606082019050919050565b6000612eb8603c836135dc565b91507f596f7520617265206e6f7420617574686f72697a656420746f2075706461746560008301527f2074686520737461747573206f6620746869732070726f647563742e000000006020830152604082019050919050565b6000612f1e6017836135dc565b91507f50726f6475637420646f6573206e6f742065786973742e0000000000000000006000830152602082019050919050565b6000612f5e603e836135dc565b91507f596f7520617265206e6f7420617574686f72697a656420746f2075706461746560008301527f20746865207175616e74697479206f6620746869732070726f647563742e00006020830152604082019050919050565b6000612fc46016836135dc565b91507f4661726d657220646f6573206e6f742065786973742e000000000000000000006000830152602082019050919050565b6000613004601b836135dc565b91507f4469737472696275746f7220616c7265616479206578697374732e00000000006000830152602082019050919050565b6000613044601b836135dc565b91507f4469737472696275746f7220646f6573206e6f742065786973742e00000000006000830152602082019050919050565b6000613084601c836135dc565b91507f4e6f64616c204167656e637920646f6573206e6f742065786973742e000000006000830152602082019050919050565b60006130c4601e836135dc565b91507f5075726368617365207265717565737420616c7265616479206d6164652e00006000830152602082019050919050565b6000613104601c836135dc565b91507f4e6f64616c204167656e637920616c7265616479206578697374732e000000006000830152602082019050919050565b60006131446019836135dc565b91507f496e76616c696420707572636861736520726571756573742e000000000000006000830152602082019050919050565b6131808161365f565b82525050565b600060a08201905081810360008301526131a08188612da6565b905081810360208301526131b48187612da6565b905081810360408301526131c88186612da6565b90506131d76060830185613177565b6131e46080830184613177565b9695505050505050565b600060c08201905081810360008301526132088189612da6565b9050818103602083015261321c8188612da6565b905081810360408301526132308187612da6565b905061323f6060830186613177565b61324c6080830185613177565b61325960a0830184612d97565b979650505050505050565b600061014082019050818103600083015261327f818d612da6565b905061328e602083018c613177565b61329b604083018b612d88565b6132a8606083018a612d88565b6132b56080830189612d88565b6132c260a0830188613177565b81810360c08301526132d48187612da6565b90506132e360e0830186613177565b6132f1610100830185612d88565b8181036101208301526133048184612da6565b90509b9a5050505050505050505050565b6000610160820190508181036000830152613330818e612da6565b905061333f602083018d613177565b61334c604083018c612d88565b613359606083018b612d88565b613366608083018a612d88565b61337360a0830189613177565b81810360c08301526133858188612da6565b905061339460e0830187613177565b6133a2610100830186612d88565b8181036101208301526133b58185612da6565b90506133c5610140830184612d97565b9c9b505050505050505050505050565b600060208201905081810360008301526133ee81612ddf565b9050919050565b6000602082019050818103600083015261340e81612e1f565b9050919050565b6000602082019050818103600083015261342e81612eab565b9050919050565b6000602082019050818103600083015261344e81612f11565b9050919050565b6000602082019050818103600083015261346e81612f51565b9050919050565b6000602082019050818103600083015261348e81612fb7565b9050919050565b600060208201905081810360008301526134ae81612ff7565b9050919050565b600060208201905081810360008301526134ce81613037565b9050919050565b600060208201905081810360008301526134ee81613077565b9050919050565b6000602082019050818103600083015261350e816130b7565b9050919050565b6000602082019050818103600083015261352e816130f7565b9050919050565b6000602082019050818103600083015261354e81613137565b9050919050565b600060208201905061356a6000830184613177565b92915050565b6000604051905081810181811067ffffffffffffffff8211171561359757613596613784565b5b8060405250919050565b600067ffffffffffffffff8211156135bc576135bb613784565b5b601f19601f8301169050602081019050919050565b600081519050919050565b600082825260208201905092915050565b60006135f88261365f565b91506136038361365f565b92508282101561361657613615613726565b5b828203905092915050565b600061362c8261363f565b9050919050565b60008115159050919050565b600073ffffffffffffffffffffffffffffffffffffffff82169050919050565b6000819050919050565b82818337600083830152505050565b60005b8381101561369657808201518184015260208101905061367b565b838111156136a5576000848401525b50505050565b600060028204905060018216806136c357607f821691505b602082108114156136d7576136d6613755565b5b50919050565b60006136e88261365f565b91507fffffffffffffffffffffffffffffffffffffffffffffffffffffffffffffffff82141561371b5761371a613726565b5b600182019050919050565b7f4e487b7100000000000000000000000000000000000000000000000000000000600052601160045260246000fd5b7f4e487b7100000000000000000000000000000000000000000000000000000000600052602260045260246000fd5b7f4e487b7100000000000000000000000000000000000000000000000000000000600052604160045260246000fd5b6000601f19601f8301169050919050565b6137cd81613621565b81146137d857600080fd5b50565b6137e48161365f565b81146137ef57600080fd5b5056fea2646970667358221220b3b46f19e4def8a7eae543803b9ffa1b60a48b63c6bbb034caaa70be4f72395664736f6c63430008000033",
  "immutableReferences": {},
  "source": "// SPDX-License-Identifier: MIT\r\npragma solidity ^0.8.0;\r\n\r\ncontract SupplyChain {\r\n    struct Farmer {\r\n        string name;\r\n        string location;\r\n        string crop;\r\n        uint256 quantity;\r\n        uint256 price;\r\n        bool isValue;\r\n    }\r\n    \r\n    struct Distributor {\r\n        string name;\r\n        string location;\r\n        string crop;\r\n        uint256 quantity;\r\n        uint256 price;\r\n        bool isValue;\r\n    }\r\n    \r\n    struct NodalAgency {\r\n        string name;\r\n        string location;\r\n        string crop;\r\n        uint256 quantity;\r\n        uint256 price;\r\n        bool isValue;\r\n    }\r\n    \r\n    struct Product {\r\n        string name;\r\n        uint256 price;\r\n        address farmer;\r\n        address distributor;\r\n        address nodalAgency;\r\n        uint256 quantity;\r\n        string status;\r\n        uint256 date;\r\n        address purchaseRequestDistributor;\r\n        string purchaseRequestZipcode;\r\n        bool isValue;\r\n    }\r\n\r\n    mapping (address => Farmer) public farmers;\r\n    mapping (address => Distributor) public distributors;\r\n    mapping (address => NodalAgency) public nodalAgencies;\r\n    mapping (uint256 => Product) public products;\r\n    uint256 public productIndex;\r\n    \r\n    function addFarmer(string memory _name, string memory _location, string memory _crop, uint256 _quantity, uint256 _price) public {\r\n        require(!farmers[msg.sender].isValue, \"Farmer already exists.\");\r\n        farmers[msg.sender] = Farmer({\r\n            name: _name,\r\n            location: _location,\r\n            crop: _crop,\r\n            quantity: _quantity,\r\n            price: _price,\r\n            isValue: true\r\n        });\r\n    }\r\n    \r\n    function getFarmer() public view returns (string memory, string memory, string memory, uint256, uint256) {\r\n        require(farmers[msg.sender].isValue, \"Farmer does not exist.\");\r\n        Farmer memory farmer = farmers[msg.sender];\r\n        return (farmer.name, farmer.location, farmer.crop, farmer.quantity, farmer.price);\r\n    }\r\n    \r\n    function addDistributor(string memory _name, string memory _location, string memory _crop, uint256 _quantity, uint256 _price) public {\r\n        require(!distributors[msg.sender].isValue, \"Distributor already exists.\");\r\n        distributors[msg.sender] = Distributor({\r\n            name: _name,\r\n            location: _location,\r\n            crop: _crop,\r\n            quantity: _quantity,\r\n            price: _price,\r\n            isValue: true\r\n        });\r\n    }\r\n    \r\n    function getDistributor() public view returns (string memory, string memory, string memory, uint256, uint256) {\r\n        require(distributors[msg.sender].isValue, \"Distributor does not exist.\");\r\n        Distributor memory distributor = distributors[msg.sender];\r\n        return (distributor.name, distributor.location, distributor.crop, distributor.quantity, distributor.price);\r\n    }\r\n    \r\n    function addNodalAgency(string memory _name, string memory _location, string memory _crop, uint256 _quantity, uint256 _price) public {\r\n        require(!nodalAgencies[msg.sender].isValue, \"Nodal Agency already exists.\");\r\n        nodalAgencies[msg.sender] = NodalAgency({\r\n            name: _name,\r\n            location: _location,\r\n            crop: _crop,\r\n            quantity: _quantity,\r\n            price: _price,\r\n            isValue: true\r\n        });\r\n    }\r\n    \r\n    function getNodalAgency() public view returns (string memory, string memory, string memory, uint256, uint256) {\r\n        require(nodalAgencies[msg.sender].isValue, \"Nodal Agency does not exist.\");\r\n        NodalAgency memory nodalAgency = nodalAgencies[msg.sender];\r\n        return (nodalAgency.name, nodalAgency.location, nodalAgency.crop, nodalAgency.quantity, nodalAgency.price);\r\n    }\r\n\r\n    function addProduct(string memory _name, uint256 _price, uint256 _quantity, string memory _status, address _distributor, string memory _purchaseRequestZipcode) public {\r\n    require(farmers[msg.sender].isValue, \"Farmer does not exist.\");\r\n    require(distributors[_distributor].isValue, \"Distributor does not exist.\");\r\n    farmers[msg.sender].quantity -= _quantity;\r\n    productIndex++;\r\n    products[productIndex] = Product({\r\n        name: _name,\r\n        price: _price,\r\n        farmer: msg.sender,\r\n        distributor: _distributor,\r\n        nodalAgency: address(0),\r\n        quantity: _quantity,\r\n        status: _status,\r\n        date: block.timestamp,\r\n        purchaseRequestDistributor: address(0),\r\n        purchaseRequestZipcode: _purchaseRequestZipcode,\r\n        isValue: true\r\n    });\r\n}\r\n\r\nfunction getProduct(uint256 _productIndex) public view returns (string memory, uint256, address, address, address, uint256, string memory, uint256, address, string memory) {\r\n    require(products[_productIndex].isValue, \"Product does not exist.\");\r\n    Product memory product = products[_productIndex];\r\n    return (product.name, product.price, product.farmer, product.distributor, product.nodalAgency, product.quantity, product.status, product.date, product.purchaseRequestDistributor, product.purchaseRequestZipcode);\r\n}\r\n\r\nfunction updateProductStatus(uint256 _productIndex, string memory _status) public {\r\n    require(products[_productIndex].isValue, \"Product does not exist.\");\r\n    require(msg.sender == products[_productIndex].farmer || msg.sender == products[_productIndex].distributor || msg.sender == products[_productIndex].nodalAgency, \"You are not authorized to update the status of this product.\");\r\n    products[_productIndex].status = _status;\r\n}\r\n\r\nfunction updateProductQuantity(uint256 _productIndex, uint256 _quantity) public {\r\n    require(products[_productIndex].isValue, \"Product does not exist.\");\r\n    require(msg.sender == products[_productIndex].farmer, \"You are not authorized to update the quantity of this product.\");\r\n    products[_productIndex].quantity = _quantity;\r\n}\r\n\r\nfunction purchaseRequest(uint256 _productIndex) public {\r\n    require(products[_productIndex].isValue, \"Product does not exist.\");\r\n    require(distributors[msg.sender].isValue, \"Distributor does not exist.\");\r\n    require(products[_productIndex].purchaseRequestDistributor == address(0), \"Purchase request already made.\");\r\n    products[_productIndex].purchaseRequestDistributor = msg.sender;\r\n}\r\n\r\nfunction approvePurchaseRequest(uint256 _productIndex, address _distributor) public {\r\n    require(products[_productIndex].isValue, \"Product does not exist.\");\r\n    require(msg.sender == products[_productIndex].farmer || msg.sender == products[_productIndex].nodalAgency, \"You are not authorized to approve the purchase request for this product.\");\r\n    require(distributors[_distributor].isValue, \"Distributor does not exist.\");\r\n    require(products[_productIndex].purchaseRequestDistributor == _distributor, \"Invalid purchase request.\");\r\n    products[_productIndex].nodalAgency = msg.sender;\r\n}\r\n\r\n}\r\n",
  "sourcePath": "C:\\Users\\Bharath\\OneDrive\\Desktop\\Folders\\KisanMitr-Dummy\\Contracts\\contracts\\SupplyChain.sol",
  "compiler": {
    "name": "solc",
    "version": "0.8.0+commit.c7dfd78e.Emscripten.clang"
  },
  "schemaVersion": "3.4.13",
  "updatedAt": "2023-05-02T01:15:28.489Z",
  "networkType": "ethereum",
  "devdoc": {
    "kind": "dev",
    "methods": {},
    "version": 1
  },
  "userdoc": {
    "kind": "user",
    "methods": {},
    "version": 1
  }
}